{
  "_format": "hh-sol-artifact-1",
  "contractName": "Challenge",
  "sourceName": "contracts/Challenge.sol",
  "abi": [
    {
      "inputs": [
        {
          "internalType": "address",
          "name": "deposit",
          "type": "address"
        }
      ],
      "stateMutability": "nonpayable",
      "type": "constructor"
    },
    {
      "anonymous": false,
      "inputs": [
        {
          "indexed": true,
          "internalType": "address",
          "name": "previousOwner",
          "type": "address"
        },
        {
          "indexed": true,
          "internalType": "address",
          "name": "newOwner",
          "type": "address"
        }
      ],
      "name": "OwnershipTransferred",
      "type": "event"
    },
    {
      "anonymous": false,
      "inputs": [],
      "name": "claimStarted",
      "type": "event"
    },
    {
      "anonymous": false,
      "inputs": [
        {
          "indexed": true,
          "internalType": "address",
          "name": "sender",
          "type": "address"
        },
        {
          "indexed": true,
          "internalType": "uint256",
          "name": "value",
          "type": "uint256"
        }
      ],
      "name": "ethDeposited",
      "type": "event"
    },
    {
      "anonymous": false,
      "inputs": [
        {
          "indexed": true,
          "internalType": "address",
          "name": "vault",
          "type": "address"
        }
      ],
      "name": "vaultAssigned",
      "type": "event"
    },
    {
      "anonymous": false,
      "inputs": [
        {
          "indexed": true,
          "internalType": "address",
          "name": "receiver",
          "type": "address"
        },
        {
          "indexed": true,
          "internalType": "uint256",
          "name": "value",
          "type": "uint256"
        }
      ],
      "name": "vaultTokenClaimed",
      "type": "event"
    },
    {
      "inputs": [
        {
          "internalType": "address",
          "name": "_token",
          "type": "address"
        }
      ],
      "name": "assignToken",
      "outputs": [],
      "stateMutability": "nonpayable",
      "type": "function"
    },
    {
      "inputs": [],
      "name": "beginClaim",
      "outputs": [],
      "stateMutability": "nonpayable",
      "type": "function"
    },
    {
      "inputs": [],
      "name": "canClaimToken",
      "outputs": [
        {
          "internalType": "bool",
          "name": "",
          "type": "bool"
        }
      ],
      "stateMutability": "view",
      "type": "function"
    },
    {
      "inputs": [],
      "name": "claim",
      "outputs": [],
      "stateMutability": "nonpayable",
      "type": "function"
    },
    {
      "inputs": [],
      "name": "depositEth",
      "outputs": [],
      "stateMutability": "payable",
      "type": "function"
    },
    {
      "inputs": [
        {
          "internalType": "address",
          "name": "sender",
          "type": "address"
        }
      ],
      "name": "getBalance",
      "outputs": [
        {
          "internalType": "uint256",
          "name": "",
          "type": "uint256"
        }
      ],
      "stateMutability": "view",
      "type": "function"
    },
    {
      "inputs": [],
      "name": "getDecimal",
      "outputs": [
        {
          "internalType": "uint256",
          "name": "",
          "type": "uint256"
        }
      ],
      "stateMutability": "pure",
      "type": "function"
    },
    {
      "inputs": [],
      "name": "getDepositAddress",
      "outputs": [
        {
          "internalType": "address",
          "name": "",
          "type": "address"
        }
      ],
      "stateMutability": "view",
      "type": "function"
    },
    {
      "inputs": [],
      "name": "getTopTen",
      "outputs": [
        {
          "internalType": "address[10]",
          "name": "",
          "type": "address[10]"
        }
      ],
      "stateMutability": "view",
      "type": "function"
    },
    {
      "inputs": [],
      "name": "getTotalDepositors",
      "outputs": [
        {
          "internalType": "uint256",
          "name": "",
          "type": "uint256"
        }
      ],
      "stateMutability": "view",
      "type": "function"
    },
    {
      "inputs": [],
      "name": "getTotalEth",
      "outputs": [
        {
          "internalType": "uint256",
          "name": "",
          "type": "uint256"
        }
      ],
      "stateMutability": "view",
      "type": "function"
    },
    {
      "inputs": [],
      "name": "getTotalShares",
      "outputs": [
        {
          "internalType": "uint256",
          "name": "",
          "type": "uint256"
        }
      ],
      "stateMutability": "view",
      "type": "function"
    },
    {
      "inputs": [],
      "name": "getVaultAddress",
      "outputs": [
        {
          "internalType": "address",
          "name": "",
          "type": "address"
        }
      ],
      "stateMutability": "view",
      "type": "function"
    },
    {
      "inputs": [
        {
          "internalType": "address",
          "name": "addr",
          "type": "address"
        }
      ],
      "name": "isTopTen",
      "outputs": [
        {
          "internalType": "bool",
          "name": "",
          "type": "bool"
        },
        {
          "internalType": "int256",
          "name": "",
          "type": "int256"
        }
      ],
      "stateMutability": "view",
      "type": "function"
    },
    {
      "inputs": [],
      "name": "owner",
      "outputs": [
        {
          "internalType": "address",
          "name": "",
          "type": "address"
        }
      ],
      "stateMutability": "view",
      "type": "function"
    },
    {
      "inputs": [],
      "name": "renounceOwnership",
      "outputs": [],
      "stateMutability": "nonpayable",
      "type": "function"
    },
    {
      "inputs": [
        {
          "internalType": "address",
          "name": "newOwner",
          "type": "address"
        }
      ],
      "name": "transferOwnership",
      "outputs": [],
      "stateMutability": "nonpayable",
      "type": "function"
    }
  ],
  "bytecode": "0x60a06040523480156200001157600080fd5b506040516200273338038062002733833981810160405281019062000037919062000178565b620000576200004b6200009560201b60201c565b6200009d60201b60201c565b8073ffffffffffffffffffffffffffffffffffffffff1660808173ffffffffffffffffffffffffffffffffffffffff1660601b8152505050620001f2565b600033905090565b60008060009054906101000a900473ffffffffffffffffffffffffffffffffffffffff169050816000806101000a81548173ffffffffffffffffffffffffffffffffffffffff021916908373ffffffffffffffffffffffffffffffffffffffff1602179055508173ffffffffffffffffffffffffffffffffffffffff168173ffffffffffffffffffffffffffffffffffffffff167f8be0079c531659141344cd1fd0a4f28419497f9722a3daafe3b4186f6b6457e060405160405180910390a35050565b6000815190506200017281620001d8565b92915050565b6000602082840312156200018b57600080fd5b60006200019b8482850162000161565b91505092915050565b6000620001b182620001b8565b9050919050565b600073ffffffffffffffffffffffffffffffffffffffff82169050919050565b620001e381620001a4565b8114620001ef57600080fd5b50565b60805160601c61251b62000218600039600081816103b0015261073f015261251b6000f3fe6080604052600436106100fe5760003560e01c80638da5cb5b11610095578063c53310b311610064578063c53310b3146102cf578063d5002f2e146102e6578063f2fde38b14610311578063f8b2cb4f1461033a578063fabe141614610377576100fe565b80638da5cb5b1461022557806393a32f6214610250578063a0c6674414610279578063b278fa4b146102a4576100fe565b8063439370b1116100d1578063439370b1146101c25780634e71d92d146101cc57806365cacaa4146101e3578063715018a61461020e576100fe565b80630e9d56a21461010357806312b0d4001461012e57806334ce10c4146101595780634349b80814610184575b600080fd5b34801561010f57600080fd5b506101186103a2565b6040516101259190612204565b60405180910390f35b34801561013a57600080fd5b506101436103ac565b6040516101509190612000565b60405180910390f35b34801561016557600080fd5b5061016e6103d4565b60405161017b9190612204565b60405180910390f35b34801561019057600080fd5b506101ab60048036038101906101a69190611b6a565b6103dd565b6040516101b992919061207b565b60405180910390f35b6101ca6104c9565b005b3480156101d857600080fd5b506101e161084f565b005b3480156101ef57600080fd5b506101f8610bad565b6040516102059190612000565b60405180910390f35b34801561021a57600080fd5b50610223610c68565b005b34801561023157600080fd5b5061023a610cf0565b6040516102479190612000565b60405180910390f35b34801561025c57600080fd5b5061027760048036038101906102729190611b6a565b610d19565b005b34801561028557600080fd5b5061028e610ead565b60405161029b9190612204565b60405180910390f35b3480156102b057600080fd5b506102b9610eb7565b6040516102c69190612044565b60405180910390f35b3480156102db57600080fd5b506102e4610f38565b005b3480156102f257600080fd5b506102fb61108f565b6040516103089190612204565b60405180910390f35b34801561031d57600080fd5b5061033860048036038101906103339190611b6a565b611099565b005b34801561034657600080fd5b50610361600480360381019061035c9190611b6a565b611191565b60405161036e9190612204565b60405180910390f35b34801561038357600080fd5b5061038c6111da565b6040516103999190612060565b60405180910390f35b6000600354905090565b60007f0000000000000000000000000000000000000000000000000000000000000000905090565b60006012905090565b60008060005b600a81101561049b578373ffffffffffffffffffffffffffffffffffffffff16600682600a811061043d577f4e487b7100000000000000000000000000000000000000000000000000000000600052603260045260246000fd5b0160009054906101000a900473ffffffffffffffffffffffffffffffffffffffff1673ffffffffffffffffffffffffffffffffffffffff1614156104885760018192509250506104c4565b8080610493906123f9565b9150506103e3565b5060007fffffffffffffffffffffffffffffffffffffffffffffffffffffffffffffffff915091505b915091565b600034905060008111610511576040517f08c379a0000000000000000000000000000000000000000000000000000000008152600401610508906121c4565b60405180910390fd5b60001515600560149054906101000a900460ff16151514610567576040517f08c379a000000000000000000000000000000000000000000000000000000000815260040161055e90612104565b60405180910390fd5b6000600160003373ffffffffffffffffffffffffffffffffffffffff1673ffffffffffffffffffffffffffffffffffffffff1681526020019081526020016000205414156105c857600460008154809291906105c2906123f9565b91905055505b80600160003373ffffffffffffffffffffffffffffffffffffffff1673ffffffffffffffffffffffffffffffffffffffff16815260200190815260200160002060008282546106179190612268565b9250508190555080600260008282546106309190612268565b9250508190555080600360008282546106499190612268565b925050819055506001600060066009600a811061068f577f4e487b7100000000000000000000000000000000000000000000000000000000600052603260045260246000fd5b0160009054906101000a900473ffffffffffffffffffffffffffffffffffffffff1673ffffffffffffffffffffffffffffffffffffffff1673ffffffffffffffffffffffffffffffffffffffff16815260200190815260200160002054600160003373ffffffffffffffffffffffffffffffffffffffff1673ffffffffffffffffffffffffffffffffffffffff16815260200190815260200160002054111561073b5761073a6111f1565b5b60007f000000000000000000000000000000000000000000000000000000000000000073ffffffffffffffffffffffffffffffffffffffff168260405161078190611feb565b60006040518083038185875af1925050503d80600081146107be576040519150601f19603f3d011682016040523d82523d6000602084013e6107c3565b606091505b5050905080610807576040517f08c379a00000000000000000000000000000000000000000000000000000000081526004016107fe906121e4565b60405180910390fd5b813373ffffffffffffffffffffffffffffffffffffffff167f4d77d40eed33375937302dec9c9c5fe2d232c9cb1201ebd827fe7c23a9f4825460405160405180910390a35050565b60011515600560149054906101000a900460ff161515146108a5576040517f08c379a000000000000000000000000000000000000000000000000000000000815260040161089c90612144565b60405180910390fd5b6000600160003373ffffffffffffffffffffffffffffffffffffffff1673ffffffffffffffffffffffffffffffffffffffff1681526020019081526020016000205490506000811161092c576040517f08c379a0000000000000000000000000000000000000000000000000000000008152600401610923906120c4565b60405180910390fd5b6000600160003373ffffffffffffffffffffffffffffffffffffffff1673ffffffffffffffffffffffffffffffffffffffff1681526020019081526020016000208190555080600260008282546109839190612349565b9250508190555060006003546103e88361099d91906122ef565b6109a791906122be565b90506000600560009054906101000a900473ffffffffffffffffffffffffffffffffffffffff1673ffffffffffffffffffffffffffffffffffffffff166370a08231306040518263ffffffff1660e01b8152600401610a069190612000565b60206040518083038186803b158015610a1e57600080fd5b505afa158015610a32573d6000803e3d6000fd5b505050506040513d601f19601f82011682018060405250810190610a569190611bbc565b905060006103e88284610a6991906122ef565b610a7391906122be565b9050600560009054906101000a900473ffffffffffffffffffffffffffffffffffffffff1673ffffffffffffffffffffffffffffffffffffffff1663a9059cbb33836040518363ffffffff1660e01b8152600401610ad292919061201b565b602060405180830381600087803b158015610aec57600080fd5b505af1158015610b00573d6000803e3d6000fd5b505050506040513d601f19601f82011682018060405250810190610b249190611b93565b610b63576040517f08c379a0000000000000000000000000000000000000000000000000000000008152600401610b5a90612124565b60405180910390fd5b803373ffffffffffffffffffffffffffffffffffffffff167f6922eac30fab504fb3a74c6deb44015a0ca70b04bcfcca974d47446e1a9321eb60405160405180910390a350505050565b60008073ffffffffffffffffffffffffffffffffffffffff16600560009054906101000a900473ffffffffffffffffffffffffffffffffffffffff1673ffffffffffffffffffffffffffffffffffffffff161415610c40576040517f08c379a0000000000000000000000000000000000000000000000000000000008152600401610c37906120e4565b60405180910390fd5b600560009054906101000a900473ffffffffffffffffffffffffffffffffffffffff16905090565b610c70611a3c565b73ffffffffffffffffffffffffffffffffffffffff16610c8e610cf0565b73ffffffffffffffffffffffffffffffffffffffff1614610ce4576040517f08c379a0000000000000000000000000000000000000000000000000000000008152600401610cdb90612164565b60405180910390fd5b610cee6000611a44565b565b60008060009054906101000a900473ffffffffffffffffffffffffffffffffffffffff16905090565b610d21611a3c565b73ffffffffffffffffffffffffffffffffffffffff16610d3f610cf0565b73ffffffffffffffffffffffffffffffffffffffff1614610d95576040517f08c379a0000000000000000000000000000000000000000000000000000000008152600401610d8c90612164565b60405180910390fd5b600073ffffffffffffffffffffffffffffffffffffffff16600560009054906101000a900473ffffffffffffffffffffffffffffffffffffffff1673ffffffffffffffffffffffffffffffffffffffff1614610e26576040517f08c379a0000000000000000000000000000000000000000000000000000000008152600401610e1d90612184565b60405180910390fd5b80600560006101000a81548173ffffffffffffffffffffffffffffffffffffffff021916908373ffffffffffffffffffffffffffffffffffffffff1602179055508073ffffffffffffffffffffffffffffffffffffffff167f1d1687135863b8872031082595fcd5adf394a34e76cfedcb88571bd35b62a18860405160405180910390a250565b6000600454905090565b610ebf611b08565b6006600a806020026040519081016040528092919082600a8015610f2e576020028201915b8160009054906101000a900473ffffffffffffffffffffffffffffffffffffffff1673ffffffffffffffffffffffffffffffffffffffff1681526020019060010190808311610ee4575b5050505050905090565b610f40611a3c565b73ffffffffffffffffffffffffffffffffffffffff16610f5e610cf0565b73ffffffffffffffffffffffffffffffffffffffff1614610fb4576040517f08c379a0000000000000000000000000000000000000000000000000000000008152600401610fab90612164565b60405180910390fd5b600073ffffffffffffffffffffffffffffffffffffffff16600560009054906101000a900473ffffffffffffffffffffffffffffffffffffffff1673ffffffffffffffffffffffffffffffffffffffff161415611046576040517f08c379a000000000000000000000000000000000000000000000000000000000815260040161103d906121a4565b60405180910390fd5b6001600560146101000a81548160ff0219169083151502179055507fc1664b1334a63b424e1e6e77615c6a122e9714343fac1013e667e55bd4b06a4460405160405180910390a1565b6000600254905090565b6110a1611a3c565b73ffffffffffffffffffffffffffffffffffffffff166110bf610cf0565b73ffffffffffffffffffffffffffffffffffffffff1614611115576040517f08c379a000000000000000000000000000000000000000000000000000000000815260040161110c90612164565b60405180910390fd5b600073ffffffffffffffffffffffffffffffffffffffff168173ffffffffffffffffffffffffffffffffffffffff161415611185576040517f08c379a000000000000000000000000000000000000000000000000000000000815260040161117c906120a4565b60405180910390fd5b61118e81611a44565b50565b6000600160008373ffffffffffffffffffffffffffffffffffffffff1673ffffffffffffffffffffffffffffffffffffffff168152602001908152602001600020549050919050565b6000600560149054906101000a900460ff16905090565b6000600160003373ffffffffffffffffffffffffffffffffffffffff1673ffffffffffffffffffffffffffffffffffffffff168152602001908152602001600020549050600080611241336103dd565b91509150600015158215151415611642576000600890505b6000811061163c5760016000600683600a811061129f577f4e487b7100000000000000000000000000000000000000000000000000000000600052603260045260246000fd5b0160009054906101000a900473ffffffffffffffffffffffffffffffffffffffff1673ffffffffffffffffffffffffffffffffffffffff1673ffffffffffffffffffffffffffffffffffffffff16815260200190815260200160002054841161149d576000600990505b6001826113169190612268565b81111561141157600660018261132c9190612349565b600a8110611363577f4e487b7100000000000000000000000000000000000000000000000000000000600052603260045260246000fd5b0160009054906101000a900473ffffffffffffffffffffffffffffffffffffffff16600682600a81106113bf577f4e487b7100000000000000000000000000000000000000000000000000000000600052603260045260246000fd5b0160006101000a81548173ffffffffffffffffffffffffffffffffffffffff021916908373ffffffffffffffffffffffffffffffffffffffff1602179055508080611409906123cf565b915050611309565b503360066001836114229190612268565b600a8110611459577f4e487b7100000000000000000000000000000000000000000000000000000000600052603260045260246000fd5b0160006101000a81548173ffffffffffffffffffffffffffffffffffffffff021916908373ffffffffffffffffffffffffffffffffffffffff16021790555061163c565b6000811415611629576000600990505b818111156115a95760066001826114c49190612349565b600a81106114fb577f4e487b7100000000000000000000000000000000000000000000000000000000600052603260045260246000fd5b0160009054906101000a900473ffffffffffffffffffffffffffffffffffffffff16600682600a8110611557577f4e487b7100000000000000000000000000000000000000000000000000000000600052603260045260246000fd5b0160006101000a81548173ffffffffffffffffffffffffffffffffffffffff021916908373ffffffffffffffffffffffffffffffffffffffff16021790555080806115a1906123cf565b9150506114ad565b5033600682600a81106115e5577f4e487b7100000000000000000000000000000000000000000000000000000000600052603260045260246000fd5b0160006101000a81548173ffffffffffffffffffffffffffffffffffffffff021916908373ffffffffffffffffffffffffffffffffffffffff16021790555061163c565b8080611634906123cf565b915050611259565b50611a37565b60006001826116519190612349565b90505b60008110611a355760016000600683600a811061169a577f4e487b7100000000000000000000000000000000000000000000000000000000600052603260045260246000fd5b0160009054906101000a900473ffffffffffffffffffffffffffffffffffffffff1673ffffffffffffffffffffffffffffffffffffffff1673ffffffffffffffffffffffffffffffffffffffff1681526020019081526020016000205484116118975760008290505b6001826117109190612268565b81111561180b5760066001826117269190612349565b600a811061175d577f4e487b7100000000000000000000000000000000000000000000000000000000600052603260045260246000fd5b0160009054906101000a900473ffffffffffffffffffffffffffffffffffffffff16600682600a81106117b9577f4e487b7100000000000000000000000000000000000000000000000000000000600052603260045260246000fd5b0160006101000a81548173ffffffffffffffffffffffffffffffffffffffff021916908373ffffffffffffffffffffffffffffffffffffffff1602179055508080611803906123cf565b915050611703565b5033600660018361181c9190612268565b600a8110611853577f4e487b7100000000000000000000000000000000000000000000000000000000600052603260045260246000fd5b0160006101000a81548173ffffffffffffffffffffffffffffffffffffffff021916908373ffffffffffffffffffffffffffffffffffffffff160217905550611a35565b6000811415611a225760008290505b818111156119a25760066001826118bd9190612349565b600a81106118f4577f4e487b7100000000000000000000000000000000000000000000000000000000600052603260045260246000fd5b0160009054906101000a900473ffffffffffffffffffffffffffffffffffffffff16600682600a8110611950577f4e487b7100000000000000000000000000000000000000000000000000000000600052603260045260246000fd5b0160006101000a81548173ffffffffffffffffffffffffffffffffffffffff021916908373ffffffffffffffffffffffffffffffffffffffff160217905550808061199a906123cf565b9150506118a6565b5033600682600a81106119de577f4e487b7100000000000000000000000000000000000000000000000000000000600052603260045260246000fd5b0160006101000a81548173ffffffffffffffffffffffffffffffffffffffff021916908373ffffffffffffffffffffffffffffffffffffffff160217905550611a35565b8080611a2d906123cf565b915050611654565b505b505050565b600033905090565b60008060009054906101000a900473ffffffffffffffffffffffffffffffffffffffff169050816000806101000a81548173ffffffffffffffffffffffffffffffffffffffff021916908373ffffffffffffffffffffffffffffffffffffffff1602179055508173ffffffffffffffffffffffffffffffffffffffff168173ffffffffffffffffffffffffffffffffffffffff167f8be0079c531659141344cd1fd0a4f28419497f9722a3daafe3b4186f6b6457e060405160405180910390a35050565b604051806101400160405280600a90602082028036833780820191505090505090565b600081359050611b3a816124a0565b92915050565b600081519050611b4f816124b7565b92915050565b600081519050611b64816124ce565b92915050565b600060208284031215611b7c57600080fd5b6000611b8a84828501611b2b565b91505092915050565b600060208284031215611ba557600080fd5b6000611bb384828501611b40565b91505092915050565b600060208284031215611bce57600080fd5b6000611bdc84828501611b55565b91505092915050565b6000611bf18383611bfd565b60208301905092915050565b611c068161237d565b82525050565b611c158161237d565b82525050565b611c2481612229565b611c2e8184612241565b9250611c398261221f565b8060005b83811015611c6a578151611c518782611be5565b9650611c5c83612234565b925050600181019050611c3d565b505050505050565b611c7b8161238f565b82525050565b611c8a8161239b565b82525050565b6000611c9d602683612257565b91507f4f776e61626c653a206e6577206f776e657220697320746865207a65726f206160008301527f64647265737300000000000000000000000000000000000000000000000000006020830152604082019050919050565b6000611d03601883612257565b91507f596f7520646f6e74206861766520616e792073686172657300000000000000006000830152602082019050919050565b6000611d43601383612257565b91507f7661756c7420746f6b656e206e6f7420736574000000000000000000000000006000830152602082019050919050565b6000611d83600e83612257565b91507f63616e6e6f74206465706f7369740000000000000000000000000000000000006000830152602082019050919050565b6000611dc3601c83612257565b91507f6661696c656420746f2073656e6420746f6b656e20746f2075736572000000006000830152602082019050919050565b6000611e03601e83612257565b91507f636c61696d696e6720706861736520686173206e6f74207374617274656400006000830152602082019050919050565b6000611e43602083612257565b91507f4f776e61626c653a2063616c6c6572206973206e6f7420746865206f776e65726000830152602082019050919050565b6000611e83602583612257565b91507f7661756c7420746f6b656e2063616e206f6e6c792062652061737369676e656460008301527f206f6e63650000000000000000000000000000000000000000000000000000006020830152604082019050919050565b6000611ee960008361224c565b9150600082019050919050565b6000611f03602583612257565b91507f7661756c7420746f6b656e20686173206e6f74206265656e2061737369676e6560008301527f64207965740000000000000000000000000000000000000000000000000000006020830152604082019050919050565b6000611f69601483612257565b91507f63616e6e6f74206465706f7369742030206574680000000000000000000000006000830152602082019050919050565b6000611fa9600e83612257565b91507f6661696c656420746f2073656e640000000000000000000000000000000000006000830152602082019050919050565b611fe5816123c5565b82525050565b6000611ff682611edc565b9150819050919050565b60006020820190506120156000830184611c0c565b92915050565b60006040820190506120306000830185611c0c565b61203d6020830184611fdc565b9392505050565b60006101408201905061205a6000830184611c1b565b92915050565b60006020820190506120756000830184611c72565b92915050565b60006040820190506120906000830185611c72565b61209d6020830184611c81565b9392505050565b600060208201905081810360008301526120bd81611c90565b9050919050565b600060208201905081810360008301526120dd81611cf6565b9050919050565b600060208201905081810360008301526120fd81611d36565b9050919050565b6000602082019050818103600083015261211d81611d76565b9050919050565b6000602082019050818103600083015261213d81611db6565b9050919050565b6000602082019050818103600083015261215d81611df6565b9050919050565b6000602082019050818103600083015261217d81611e36565b9050919050565b6000602082019050818103600083015261219d81611e76565b9050919050565b600060208201905081810360008301526121bd81611ef6565b9050919050565b600060208201905081810360008301526121dd81611f5c565b9050919050565b600060208201905081810360008301526121fd81611f9c565b9050919050565b60006020820190506122196000830184611fdc565b92915050565b6000819050919050565b6000600a9050919050565b6000602082019050919050565b600081905092915050565b600081905092915050565b600082825260208201905092915050565b6000612273826123c5565b915061227e836123c5565b9250827fffffffffffffffffffffffffffffffffffffffffffffffffffffffffffffffff038211156122b3576122b2612442565b5b828201905092915050565b60006122c9826123c5565b91506122d4836123c5565b9250826122e4576122e3612471565b5b828204905092915050565b60006122fa826123c5565b9150612305836123c5565b9250817fffffffffffffffffffffffffffffffffffffffffffffffffffffffffffffffff048311821515161561233e5761233d612442565b5b828202905092915050565b6000612354826123c5565b915061235f836123c5565b92508282101561237257612371612442565b5b828203905092915050565b6000612388826123a5565b9050919050565b60008115159050919050565b6000819050919050565b600073ffffffffffffffffffffffffffffffffffffffff82169050919050565b6000819050919050565b60006123da826123c5565b915060008214156123ee576123ed612442565b5b600182039050919050565b6000612404826123c5565b91507fffffffffffffffffffffffffffffffffffffffffffffffffffffffffffffffff82141561243757612436612442565b5b600182019050919050565b7f4e487b7100000000000000000000000000000000000000000000000000000000600052601160045260246000fd5b7f4e487b7100000000000000000000000000000000000000000000000000000000600052601260045260246000fd5b6124a98161237d565b81146124b457600080fd5b50565b6124c08161238f565b81146124cb57600080fd5b50565b6124d7816123c5565b81146124e257600080fd5b5056fea26469706673582212200f9bca7dbe764f8c1f0d123061f164d8a7d176742e7f6b571abb8eb62ae7a7a264736f6c63430008000033",
  "linkReferences": {},
  "deployedLinkReferences": {}
}